{
  "contractName": "MarcCoin",
  "abi": [
    {
      "inputs": [
        {
          "internalType": "uint256",
          "name": "total",
          "type": "uint256"
        },
        {
          "internalType": "address",
          "name": "lotteryOwnerAddress",
          "type": "address"
        }
      ],
      "stateMutability": "nonpayable",
      "type": "constructor"
    },
    {
      "anonymous": false,
      "inputs": [
        {
          "indexed": true,
          "internalType": "address",
          "name": "tokenOwner",
          "type": "address"
        },
        {
          "indexed": true,
          "internalType": "address",
          "name": "spender",
          "type": "address"
        },
        {
          "indexed": false,
          "internalType": "uint256",
          "name": "tokens",
          "type": "uint256"
        }
      ],
      "name": "Approval",
      "type": "event"
    },
    {
      "anonymous": false,
      "inputs": [
        {
          "indexed": true,
          "internalType": "address",
          "name": "from",
          "type": "address"
        },
        {
          "indexed": true,
          "internalType": "address",
          "name": "to",
          "type": "address"
        },
        {
          "indexed": false,
          "internalType": "uint256",
          "name": "tokens",
          "type": "uint256"
        }
      ],
      "name": "Transfer",
      "type": "event"
    },
    {
      "anonymous": false,
      "inputs": [
        {
          "indexed": false,
          "internalType": "string",
          "name": "message",
          "type": "string"
        }
      ],
      "name": "WinningMessage",
      "type": "event"
    },
    {
      "inputs": [],
      "name": "decimals",
      "outputs": [
        {
          "internalType": "uint8",
          "name": "",
          "type": "uint8"
        }
      ],
      "stateMutability": "view",
      "type": "function",
      "constant": true
    },
    {
      "inputs": [],
      "name": "name",
      "outputs": [
        {
          "internalType": "string",
          "name": "",
          "type": "string"
        }
      ],
      "stateMutability": "view",
      "type": "function",
      "constant": true
    },
    {
      "inputs": [],
      "name": "symbol",
      "outputs": [
        {
          "internalType": "string",
          "name": "",
          "type": "string"
        }
      ],
      "stateMutability": "view",
      "type": "function",
      "constant": true
    },
    {
      "inputs": [],
      "name": "resetLotteryMessage",
      "outputs": [],
      "stateMutability": "nonpayable",
      "type": "function"
    },
    {
      "inputs": [],
      "name": "getLotteryAddress",
      "outputs": [
        {
          "internalType": "address",
          "name": "",
          "type": "address"
        }
      ],
      "stateMutability": "view",
      "type": "function",
      "constant": true
    },
    {
      "inputs": [
        {
          "internalType": "address",
          "name": "tokenOwner",
          "type": "address"
        }
      ],
      "name": "balanceOf",
      "outputs": [
        {
          "internalType": "uint256",
          "name": "",
          "type": "uint256"
        }
      ],
      "stateMutability": "view",
      "type": "function",
      "constant": true
    },
    {
      "inputs": [],
      "name": "getLotteryPot",
      "outputs": [
        {
          "internalType": "uint256",
          "name": "",
          "type": "uint256"
        }
      ],
      "stateMutability": "view",
      "type": "function",
      "constant": true
    },
    {
      "inputs": [
        {
          "internalType": "address",
          "name": "receiver",
          "type": "address"
        },
        {
          "internalType": "uint256",
          "name": "numTokens",
          "type": "uint256"
        }
      ],
      "name": "transfer",
      "outputs": [
        {
          "internalType": "bool",
          "name": "",
          "type": "bool"
        }
      ],
      "stateMutability": "nonpayable",
      "type": "function"
    },
    {
      "inputs": [
        {
          "internalType": "address",
          "name": "owner",
          "type": "address"
        },
        {
          "internalType": "address",
          "name": "buyer",
          "type": "address"
        },
        {
          "internalType": "uint256",
          "name": "numTokens",
          "type": "uint256"
        }
      ],
      "name": "transferFrom",
      "outputs": [
        {
          "internalType": "bool",
          "name": "",
          "type": "bool"
        }
      ],
      "stateMutability": "nonpayable",
      "type": "function"
    },
    {
      "inputs": [
        {
          "internalType": "address",
          "name": "lotteryPlayer",
          "type": "address"
        },
        {
          "internalType": "uint256",
          "name": "numberChoice",
          "type": "uint256"
        }
      ],
      "name": "playLottery",
      "outputs": [
        {
          "internalType": "string",
          "name": "",
          "type": "string"
        }
      ],
      "stateMutability": "nonpayable",
      "type": "function"
    }
  ],
  "bytecode": "0x60806040523480156200001157600080fd5b50604051620016873803806200168783398181016040528101906200003791906200022c565b816003819055506003546000803373ffffffffffffffffffffffffffffffffffffffff1673ffffffffffffffffffffffffffffffffffffffff16815260200190815260200160002081905550600060068190555033600560006101000a81548173ffffffffffffffffffffffffffffffffffffffff021916908373ffffffffffffffffffffffffffffffffffffffff16021790555080600460006101000a81548173ffffffffffffffffffffffffffffffffffffffff021916908373ffffffffffffffffffffffffffffffffffffffff1602179055506040518060400160405280601681526020017f596f7527766520776f6e20746865206c6f74746572790000000000000000000081525060079081620001539190620004e3565b506040518060600160405280602381526020016200166460239139600890816200017e9190620004e3565b505050620005ca565b600080fd5b6000819050919050565b620001a1816200018c565b8114620001ad57600080fd5b50565b600081519050620001c18162000196565b92915050565b600073ffffffffffffffffffffffffffffffffffffffff82169050919050565b6000620001f482620001c7565b9050919050565b6200020681620001e7565b81146200021257600080fd5b50565b6000815190506200022681620001fb565b92915050565b6000806040838503121562000246576200024562000187565b5b60006200025685828601620001b0565b9250506020620002698582860162000215565b9150509250929050565b600081519050919050565b7f4e487b7100000000000000000000000000000000000000000000000000000000600052604160045260246000fd5b7f4e487b7100000000000000000000000000000000000000000000000000000000600052602260045260246000fd5b60006002820490506001821680620002f557607f821691505b6020821081036200030b576200030a620002ad565b5b50919050565b60008190508160005260206000209050919050565b60006020601f8301049050919050565b600082821b905092915050565b600060088302620003757fffffffffffffffffffffffffffffffffffffffffffffffffffffffffffffffff8262000336565b62000381868362000336565b95508019841693508086168417925050509392505050565b6000819050919050565b6000620003c4620003be620003b8846200018c565b62000399565b6200018c565b9050919050565b6000819050919050565b620003e083620003a3565b620003f8620003ef82620003cb565b84845462000343565b825550505050565b600090565b6200040f62000400565b6200041c818484620003d5565b505050565b5b8181101562000444576200043860008262000405565b60018101905062000422565b5050565b601f82111562000493576200045d8162000311565b620004688462000326565b8101602085101562000478578190505b62000490620004878562000326565b83018262000421565b50505b505050565b600082821c905092915050565b6000620004b86000198460080262000498565b1980831691505092915050565b6000620004d38383620004a5565b9150826002028217905092915050565b620004ee8262000273565b67ffffffffffffffff8111156200050a57620005096200027e565b5b620005168254620002dc565b6200052382828562000448565b600060209050601f8311600181146200055b576000841562000546578287015190505b620005528582620004c5565b865550620005c2565b601f1984166200056b8662000311565b60005b8281101562000595578489015182556001820191506020850194506020810190506200056e565b86831015620005b55784890151620005b1601f891682620004a5565b8355505b6001600288020188555050505b505050505050565b61108a80620005da6000396000f3fe608060405234801561001057600080fd5b506004361061009e5760003560e01c806370a082311161006657806370a082311461014957806395d89b4114610179578063a8aa2bf214610197578063a9059cbb146101b5578063fc7d9178146101e55761009e565b8063010a6e4a146100a357806306fdde03146100ad57806323b872dd146100cb5780632c7f8d7e146100fb578063313ce5671461012b575b600080fd5b6100ab610203565b005b6100b561023a565b6040516100c29190610a81565b60405180910390f35b6100e560048036038101906100e09190610b3c565b610273565b6040516100f29190610baa565b60405180910390f35b61011560048036038101906101109190610bc5565b6103da565b6040516101229190610a81565b60405180910390f35b61013361078f565b6040516101409190610c21565b60405180910390f35b610163600480360381019061015e9190610c3c565b610794565b6040516101709190610c78565b60405180910390f35b6101816107dc565b60405161018e9190610a81565b60405180910390f35b61019f610815565b6040516101ac9190610c78565b60405180910390f35b6101cf60048036038101906101ca9190610bc5565b61081f565b6040516101dc9190610baa565b60405180910390f35b6101ed610985565b6040516101fa9190610ca2565b60405180910390f35b7fa2f61c080b921ccb9940ec5a7df7f866903102da3f26c799d36cd3b60f60aeab60405161023090610d09565b60405180910390a1565b6040518060400160405280600981526020017f4d61726320436f696e000000000000000000000000000000000000000000000081525081565b60008060008573ffffffffffffffffffffffffffffffffffffffff1673ffffffffffffffffffffffffffffffffffffffff168152602001908152602001600020548211156102c057600080fd5b816000808673ffffffffffffffffffffffffffffffffffffffff1673ffffffffffffffffffffffffffffffffffffffff168152602001908152602001600020600082825461030e9190610d58565b92505081905550816000808573ffffffffffffffffffffffffffffffffffffffff1673ffffffffffffffffffffffffffffffffffffffff16815260200190815260200160002060008282546103639190610d8c565b925050819055508273ffffffffffffffffffffffffffffffffffffffff168473ffffffffffffffffffffffffffffffffffffffff167fddf252ad1be2c89b69c2b068fc378daa952ba7f163c4a11628f55a4df523b3ef846040516103c79190610c78565b60405180910390a3600190509392505050565b6060610409600560009054906101000a900473ffffffffffffffffffffffffffffffffffffffff16600161081f565b5060016006546104199190610d8c565b60068190555061042a6003546109af565b60098190555081600954036106c357610503600560009054906101000a900473ffffffffffffffffffffffffffffffffffffffff16846008600a600080600560009054906101000a900473ffffffffffffffffffffffffffffffffffffffff1673ffffffffffffffffffffffffffffffffffffffff1673ffffffffffffffffffffffffffffffffffffffff168152602001908152602001600020546104cf9190610def565b6104d99190610e20565b6008600a6006546104ea9190610def565b6104f49190610e20565b6104fe9190610d8c565b610273565b506105f0600560009054906101000a900473ffffffffffffffffffffffffffffffffffffffff16600460009054906101000a900473ffffffffffffffffffffffffffffffffffffffff166002600a600080600560009054906101000a900473ffffffffffffffffffffffffffffffffffffffff1673ffffffffffffffffffffffffffffffffffffffff1673ffffffffffffffffffffffffffffffffffffffff168152602001908152602001600020546105bc9190610def565b6105c69190610e20565b6002600a6006546105d79190610def565b6105e19190610e20565b6105eb9190610d8c565b610273565b5060006006819055507fa2f61c080b921ccb9940ec5a7df7f866903102da3f26c799d36cd3b60f60aeab60076040516106299190610f5b565b60405180910390a16007805461063e90610e91565b80601f016020809104026020016040519081016040528092919081815260200182805461066a90610e91565b80156106b75780601f1061068c576101008083540402835291602001916106b7565b820191906000526020600020905b81548152906001019060200180831161069a57829003601f168201915b50505050509050610789565b7fa2f61c080b921ccb9940ec5a7df7f866903102da3f26c799d36cd3b60f60aeab60086040516106f39190610f5b565b60405180910390a16008805461070890610e91565b80601f016020809104026020016040519081016040528092919081815260200182805461073490610e91565b80156107815780601f1061075657610100808354040283529160200191610781565b820191906000526020600020905b81548152906001019060200180831161076457829003601f168201915b505050505090505b92915050565b601281565b60008060008373ffffffffffffffffffffffffffffffffffffffff1673ffffffffffffffffffffffffffffffffffffffff168152602001908152602001600020549050919050565b6040518060400160405280600481526020017f4d4152430000000000000000000000000000000000000000000000000000000081525081565b6000600654905090565b60008060003373ffffffffffffffffffffffffffffffffffffffff1673ffffffffffffffffffffffffffffffffffffffff1681526020019081526020016000205482111561086c57600080fd5b816000803373ffffffffffffffffffffffffffffffffffffffff1673ffffffffffffffffffffffffffffffffffffffff16815260200190815260200160002060008282546108ba9190610d58565b92505081905550816000808573ffffffffffffffffffffffffffffffffffffffff1673ffffffffffffffffffffffffffffffffffffffff168152602001908152602001600020600082825461090f9190610d8c565b925050819055508273ffffffffffffffffffffffffffffffffffffffff163373ffffffffffffffffffffffffffffffffffffffff167fddf252ad1be2c89b69c2b068fc378daa952ba7f163c4a11628f55a4df523b3ef846040516109739190610c78565b60405180910390a36001905092915050565b6000600460009054906101000a900473ffffffffffffffffffffffffffffffffffffffff16905090565b6000814244336040516020016109c793929190610fe6565b6040516020818303038152906040528051906020012060001c6109ea9190611023565b9050919050565b600081519050919050565b600082825260208201905092915050565b60005b83811015610a2b578082015181840152602081019050610a10565b60008484015250505050565b6000601f19601f8301169050919050565b6000610a53826109f1565b610a5d81856109fc565b9350610a6d818560208601610a0d565b610a7681610a37565b840191505092915050565b60006020820190508181036000830152610a9b8184610a48565b905092915050565b600080fd5b600073ffffffffffffffffffffffffffffffffffffffff82169050919050565b6000610ad382610aa8565b9050919050565b610ae381610ac8565b8114610aee57600080fd5b50565b600081359050610b0081610ada565b92915050565b6000819050919050565b610b1981610b06565b8114610b2457600080fd5b50565b600081359050610b3681610b10565b92915050565b600080600060608486031215610b5557610b54610aa3565b5b6000610b6386828701610af1565b9350506020610b7486828701610af1565b9250506040610b8586828701610b27565b9150509250925092565b60008115159050919050565b610ba481610b8f565b82525050565b6000602082019050610bbf6000830184610b9b565b92915050565b60008060408385031215610bdc57610bdb610aa3565b5b6000610bea85828601610af1565b9250506020610bfb85828601610b27565b9150509250929050565b600060ff82169050919050565b610c1b81610c05565b82525050565b6000602082019050610c366000830184610c12565b92915050565b600060208284031215610c5257610c51610aa3565b5b6000610c6084828501610af1565b91505092915050565b610c7281610b06565b82525050565b6000602082019050610c8d6000830184610c69565b92915050565b610c9c81610ac8565b82525050565b6000602082019050610cb76000830184610c93565b92915050565b7f54727920796f7572206c75636b20617420746865206c6f747465727921000000600082015250565b6000610cf3601d836109fc565b9150610cfe82610cbd565b602082019050919050565b60006020820190508181036000830152610d2281610ce6565b9050919050565b7f4e487b7100000000000000000000000000000000000000000000000000000000600052601160045260246000fd5b6000610d6382610b06565b9150610d6e83610b06565b9250828203905081811115610d8657610d85610d29565b5b92915050565b6000610d9782610b06565b9150610da283610b06565b9250828201905080821115610dba57610db9610d29565b5b92915050565b7f4e487b7100000000000000000000000000000000000000000000000000000000600052601260045260246000fd5b6000610dfa82610b06565b9150610e0583610b06565b925082610e1557610e14610dc0565b5b828204905092915050565b6000610e2b82610b06565b9150610e3683610b06565b9250828202610e4481610b06565b91508282048414831517610e5b57610e5a610d29565b5b5092915050565b7f4e487b7100000000000000000000000000000000000000000000000000000000600052602260045260246000fd5b60006002820490506001821680610ea957607f821691505b602082108103610ebc57610ebb610e62565b5b50919050565b60008190508160005260206000209050919050565b60008154610ee481610e91565b610eee81866109fc565b94506001821660008114610f095760018114610f1f57610f52565b60ff198316865281151560200286019350610f52565b610f2885610ec2565b60005b83811015610f4a57815481890152600182019150602081019050610f2b565b808801955050505b50505092915050565b60006020820190508181036000830152610f758184610ed7565b905092915050565b6000819050919050565b610f98610f9382610b06565b610f7d565b82525050565b60008160601b9050919050565b6000610fb682610f9e565b9050919050565b6000610fc882610fab565b9050919050565b610fe0610fdb82610ac8565b610fbd565b82525050565b6000610ff28286610f87565b6020820191506110028285610f87565b6020820191506110128284610fcf565b601482019150819050949350505050565b600061102e82610b06565b915061103983610b06565b92508261104957611048610dc0565b5b82820690509291505056fea2646970667358221220cba40400abf637cb8f04a526e7fa56fc8cafa22ccc57b568ea024f9e1265923164736f6c63430008120033596f75277665206c6f737420746865206c6f74746572792c2074727920616761696e21",
  "immutableReferences": {},
  "source": "// SPDX-License-Identifier: GPL-3.0\r\npragma solidity >=0.8.18 <0.9.0;\r\n\r\ncontract MarcCoin {\r\nevent Transfer(address indexed from, address indexed to, uint tokens);\r\nevent Approval(address indexed tokenOwner, address indexed spender, uint tokens);\r\nevent WinningMessage(string message);\r\nstring public constant name = \"Marc Coin\";\r\nstring public constant symbol = \"MARC\";\r\nuint8 public constant decimals = 18;\r\n\r\nmapping(address => uint256) balances;\r\nmapping(address => uint256) pot;\r\nmapping(address => mapping (address => uint256)) allowed;\r\n\r\nuint256 totalSupply_;\r\naddress lotteryAddress; // where the money will be going (ie fundraiser)\r\naddress smartContractAddress;\r\nuint256 lotteryPot;\r\nstring youWinResponse;\r\nstring youLoseResponse;\r\nuint winningNumber;\r\nconstructor(uint256 total, address lotteryOwnerAddress ) {\r\n  totalSupply_ = total;\r\n  balances[msg.sender] = totalSupply_;\r\n  lotteryPot = 0;\r\n  smartContractAddress = msg.sender;\r\n\r\n  lotteryAddress = lotteryOwnerAddress;\r\n  youWinResponse = \"You've won the lottery\";\r\n  youLoseResponse = \"You've lost the lottery, try again!\";\r\n}\r\n\r\nfunction resetLotteryMessage() public {\r\n    emit WinningMessage(\"Try your luck at the lottery!\");\r\n}\r\n\r\nfunction getLotteryAddress() public view returns (address){\r\n    return lotteryAddress;\r\n}\r\n\r\nfunction balanceOf(address tokenOwner) public view returns (uint) {\r\n    return balances[tokenOwner];\r\n}\r\n\r\nfunction getLotteryPot() public view returns (uint){\r\n    return lotteryPot;\r\n}\r\n\r\nfunction transfer(address receiver, uint numTokens) public returns (bool) {\r\n    require(numTokens <= balances[msg.sender]);\r\n    balances[msg.sender] -= numTokens;\r\n    balances[receiver] += numTokens;\r\n    emit Transfer(msg.sender, receiver, numTokens);\r\n    return true;\r\n}\r\n\r\nfunction transferFrom(address owner, address buyer, uint numTokens) public returns (bool) {\r\n    require(numTokens <= balances[owner]);\r\n    // require(numTokens <= allowed[owner][msg.sender]);\r\n    balances[owner] -= numTokens;\r\n    // allowed[owner][msg.sender] -= numTokens;\r\n    balances[buyer] += numTokens;\r\n     emit Transfer(owner, buyer, numTokens);\r\n    return true;\r\n} \r\n\r\nfunction playLottery(address lotteryPlayer, uint numberChoice) public returns (string memory){\r\n// take a Marc Coin\r\ntransfer(smartContractAddress, 1);\r\n lotteryPot = lotteryPot + 1;\r\n\r\n     // random number\r\n        winningNumber = generateRandomNumber(totalSupply_);\r\n        if(winningNumber == numberChoice){\r\n        \r\n        transferFrom(smartContractAddress, lotteryPlayer, lotteryPot /10 * 8 + balances[smartContractAddress]/10 * 8 );\r\n        transferFrom(smartContractAddress, lotteryAddress, lotteryPot /10 * 2 + balances[smartContractAddress]/10 * 2);\r\n        lotteryPot = 0;\r\n        emit WinningMessage(youWinResponse);\r\n        return youWinResponse;\r\n        } else{\r\n        emit WinningMessage(youLoseResponse);\r\n        return youLoseResponse;\r\n        }\r\n}\r\n\r\nfunction generateRandomNumber(uint number) private view returns(uint){\r\n       return uint(keccak256(abi.encodePacked(block.timestamp,block.prevrandao,  \r\n        msg.sender))) % number;\r\n}\r\n// function approve(address delegate, uint numTokens) public returns (bool) {\r\n//     allowed[msg.sender][delegate] = numTokens;\r\n//     emit Approval(msg.sender, delegate, numTokens);\r\n//     return true;\r\n// }\r\n}",
  "sourcePath": "D:\\Computer Science\\CS705_Website\\CS705 Truffler\\contracts\\MarcCoin.sol",
  "compiler": {
    "name": "solc",
    "version": "0.8.18+commit.87f61d96.Emscripten.clang"
  },
  "schemaVersion": "3.4.13",
  "updatedAt": "2023-04-24T01:15:20.184Z",
  "networkType": "ethereum",
  "devdoc": {
    "kind": "dev",
    "methods": {},
    "version": 1
  },
  "userdoc": {
    "kind": "user",
    "methods": {},
    "version": 1
  }
}