{
  "contractName": "MarcCoin",
  "abi": [
    {
      "inputs": [
        {
          "internalType": "uint256",
          "name": "total",
          "type": "uint256"
        },
        {
          "internalType": "address",
          "name": "ownerAddress",
          "type": "address"
        }
      ],
      "stateMutability": "nonpayable",
      "type": "constructor"
    },
    {
      "anonymous": false,
      "inputs": [
        {
          "indexed": true,
          "internalType": "address",
          "name": "tokenOwner",
          "type": "address"
        },
        {
          "indexed": true,
          "internalType": "address",
          "name": "spender",
          "type": "address"
        },
        {
          "indexed": false,
          "internalType": "uint256",
          "name": "tokens",
          "type": "uint256"
        }
      ],
      "name": "Approval",
      "type": "event"
    },
    {
      "anonymous": false,
      "inputs": [
        {
          "indexed": true,
          "internalType": "address",
          "name": "from",
          "type": "address"
        },
        {
          "indexed": true,
          "internalType": "address",
          "name": "to",
          "type": "address"
        },
        {
          "indexed": false,
          "internalType": "uint256",
          "name": "tokens",
          "type": "uint256"
        }
      ],
      "name": "Transfer",
      "type": "event"
    },
    {
      "inputs": [],
      "name": "decimals",
      "outputs": [
        {
          "internalType": "uint8",
          "name": "",
          "type": "uint8"
        }
      ],
      "stateMutability": "view",
      "type": "function",
      "constant": true
    },
    {
      "inputs": [],
      "name": "name",
      "outputs": [
        {
          "internalType": "string",
          "name": "",
          "type": "string"
        }
      ],
      "stateMutability": "view",
      "type": "function",
      "constant": true
    },
    {
      "inputs": [],
      "name": "symbol",
      "outputs": [
        {
          "internalType": "string",
          "name": "",
          "type": "string"
        }
      ],
      "stateMutability": "view",
      "type": "function",
      "constant": true
    },
    {
      "inputs": [
        {
          "internalType": "address",
          "name": "tokenOwner",
          "type": "address"
        }
      ],
      "name": "balanceOf",
      "outputs": [
        {
          "internalType": "uint256",
          "name": "",
          "type": "uint256"
        }
      ],
      "stateMutability": "view",
      "type": "function",
      "constant": true
    },
    {
      "inputs": [
        {
          "internalType": "address",
          "name": "receiver",
          "type": "address"
        },
        {
          "internalType": "uint256",
          "name": "numTokens",
          "type": "uint256"
        }
      ],
      "name": "transfer",
      "outputs": [
        {
          "internalType": "bool",
          "name": "",
          "type": "bool"
        }
      ],
      "stateMutability": "nonpayable",
      "type": "function"
    },
    {
      "inputs": [
        {
          "internalType": "address",
          "name": "owner",
          "type": "address"
        },
        {
          "internalType": "address",
          "name": "buyer",
          "type": "address"
        },
        {
          "internalType": "uint256",
          "name": "numTokens",
          "type": "uint256"
        }
      ],
      "name": "transferFrom",
      "outputs": [
        {
          "internalType": "bool",
          "name": "",
          "type": "bool"
        }
      ],
      "stateMutability": "nonpayable",
      "type": "function"
    }
  ],
  "bytecode": "0x608060405234801561001057600080fd5b506040516109e43803806109e48339818101604052810190610032919061011e565b816002819055506002546000808373ffffffffffffffffffffffffffffffffffffffff1673ffffffffffffffffffffffffffffffffffffffff16815260200190815260200160002081905550505061015e565b600080fd5b6000819050919050565b61009d8161008a565b81146100a857600080fd5b50565b6000815190506100ba81610094565b92915050565b600073ffffffffffffffffffffffffffffffffffffffff82169050919050565b60006100eb826100c0565b9050919050565b6100fb816100e0565b811461010657600080fd5b50565b600081519050610118816100f2565b92915050565b6000806040838503121561013557610134610085565b5b6000610143858286016100ab565b925050602061015485828601610109565b9150509250929050565b6108778061016d6000396000f3fe608060405234801561001057600080fd5b50600436106100625760003560e01c806306fdde031461006757806323b872dd14610085578063313ce567146100b557806370a08231146100d357806395d89b4114610103578063a9059cbb14610121575b600080fd5b61006f610151565b60405161007c9190610576565b60405180910390f35b61009f600480360381019061009a9190610631565b61018a565b6040516100ac919061069f565b60405180910390f35b6100bd6102f1565b6040516100ca91906106d6565b60405180910390f35b6100ed60048036038101906100e891906106f1565b6102f6565b6040516100fa919061072d565b60405180910390f35b61010b61033e565b6040516101189190610576565b60405180910390f35b61013b60048036038101906101369190610748565b610377565b604051610148919061069f565b60405180910390f35b6040518060400160405280600981526020017f4d61726320436f696e000000000000000000000000000000000000000000000081525081565b60008060008573ffffffffffffffffffffffffffffffffffffffff1673ffffffffffffffffffffffffffffffffffffffff168152602001908152602001600020548211156101d757600080fd5b816000808673ffffffffffffffffffffffffffffffffffffffff1673ffffffffffffffffffffffffffffffffffffffff168152602001908152602001600020600082825461022591906107b7565b92505081905550816000808573ffffffffffffffffffffffffffffffffffffffff1673ffffffffffffffffffffffffffffffffffffffff168152602001908152602001600020600082825461027a91906107eb565b925050819055508273ffffffffffffffffffffffffffffffffffffffff168473ffffffffffffffffffffffffffffffffffffffff167fddf252ad1be2c89b69c2b068fc378daa952ba7f163c4a11628f55a4df523b3ef846040516102de919061072d565b60405180910390a3600190509392505050565b601281565b60008060008373ffffffffffffffffffffffffffffffffffffffff1673ffffffffffffffffffffffffffffffffffffffff168152602001908152602001600020549050919050565b6040518060400160405280600481526020017f4d4152430000000000000000000000000000000000000000000000000000000081525081565b60008060003373ffffffffffffffffffffffffffffffffffffffff1673ffffffffffffffffffffffffffffffffffffffff168152602001908152602001600020548211156103c457600080fd5b816000803373ffffffffffffffffffffffffffffffffffffffff1673ffffffffffffffffffffffffffffffffffffffff168152602001908152602001600020600082825461041291906107b7565b92505081905550816000808573ffffffffffffffffffffffffffffffffffffffff1673ffffffffffffffffffffffffffffffffffffffff168152602001908152602001600020600082825461046791906107eb565b925050819055508273ffffffffffffffffffffffffffffffffffffffff163373ffffffffffffffffffffffffffffffffffffffff167fddf252ad1be2c89b69c2b068fc378daa952ba7f163c4a11628f55a4df523b3ef846040516104cb919061072d565b60405180910390a36001905092915050565b600081519050919050565b600082825260208201905092915050565b60005b838110156105175780820151818401526020810190506104fc565b83811115610526576000848401525b50505050565b6000601f19601f8301169050919050565b6000610548826104dd565b61055281856104e8565b93506105628185602086016104f9565b61056b8161052c565b840191505092915050565b60006020820190508181036000830152610590818461053d565b905092915050565b600080fd5b600073ffffffffffffffffffffffffffffffffffffffff82169050919050565b60006105c88261059d565b9050919050565b6105d8816105bd565b81146105e357600080fd5b50565b6000813590506105f5816105cf565b92915050565b6000819050919050565b61060e816105fb565b811461061957600080fd5b50565b60008135905061062b81610605565b92915050565b60008060006060848603121561064a57610649610598565b5b6000610658868287016105e6565b9350506020610669868287016105e6565b925050604061067a8682870161061c565b9150509250925092565b60008115159050919050565b61069981610684565b82525050565b60006020820190506106b46000830184610690565b92915050565b600060ff82169050919050565b6106d0816106ba565b82525050565b60006020820190506106eb60008301846106c7565b92915050565b60006020828403121561070757610706610598565b5b6000610715848285016105e6565b91505092915050565b610727816105fb565b82525050565b6000602082019050610742600083018461071e565b92915050565b6000806040838503121561075f5761075e610598565b5b600061076d858286016105e6565b925050602061077e8582860161061c565b9150509250929050565b7f4e487b7100000000000000000000000000000000000000000000000000000000600052601160045260246000fd5b60006107c2826105fb565b91506107cd836105fb565b9250828210156107e0576107df610788565b5b828203905092915050565b60006107f6826105fb565b9150610801836105fb565b9250827fffffffffffffffffffffffffffffffffffffffffffffffffffffffffffffffff0382111561083657610835610788565b5b82820190509291505056fea26469706673582212204dbbc7cb667f82122da01384de0929b292e14147157a4fcbf7179acc0d19b21c64736f6c634300080d0033",
  "immutableReferences": {},
  "source": "// SPDX-License-Identifier: GPL-3.0\r\npragma solidity >=0.7.0 <0.9.0;\r\n\r\ncontract MarcCoin {\r\nevent Transfer(address indexed from, address indexed to, uint tokens);\r\nevent Approval(address indexed tokenOwner, address indexed spender, uint tokens);\r\n\r\nstring public constant name = \"Marc Coin\";\r\nstring public constant symbol = \"MARC\";\r\nuint8 public constant decimals = 18;\r\n\r\nmapping(address => uint256) balances;\r\nmapping(address => mapping (address => uint256)) allowed;\r\n\r\nuint256 totalSupply_;\r\n\r\nconstructor(uint256 total, address ownerAddress) {\r\n  totalSupply_ = total;\r\n  balances[ownerAddress] = totalSupply_;\r\n}\r\n\r\nfunction balanceOf(address tokenOwner) public view returns (uint) {\r\n    return balances[tokenOwner];\r\n}\r\n\r\nfunction transfer(address receiver, uint numTokens) public returns (bool) {\r\n    require(numTokens <= balances[msg.sender]);\r\n    balances[msg.sender] -= numTokens;\r\n    balances[receiver] += numTokens;\r\n    emit Transfer(msg.sender, receiver, numTokens);\r\n    return true;\r\n}\r\n\r\n// function approve(address delegate, uint numTokens) public returns (bool) {\r\n//     allowed[msg.sender][delegate] = numTokens;\r\n//     emit Approval(msg.sender, delegate, numTokens);\r\n//     return true;\r\n// }\r\n\r\n    function transferFrom(address owner, address buyer, uint numTokens) public returns (bool) {\r\n        require(numTokens <= balances[owner]);\r\n        // require(numTokens <= allowed[owner][msg.sender]);\r\n        balances[owner] -= numTokens;\r\n        // allowed[owner][msg.sender] -= numTokens;\r\n        balances[buyer] += numTokens;\r\n        emit Transfer(owner, buyer, numTokens);\r\n        return true;\r\n    } \r\n\r\n}",
  "sourcePath": "D:\\Computer Science\\CS705_Website\\CS705 Truffler\\contracts\\MarcCoin.sol",
  "compiler": {
    "name": "solc",
    "version": "0.8.13+commit.abaa5c0e.Emscripten.clang"
  },
  "schemaVersion": "3.4.13",
  "updatedAt": "2023-03-27T13:29:08.182Z",
  "networkType": "ethereum",
  "devdoc": {
    "kind": "dev",
    "methods": {},
    "version": 1
  },
  "userdoc": {
    "kind": "user",
    "methods": {},
    "version": 1
  }
}